{
  "_format": "hh-sol-artifact-1",
  "contractName": "WavePortal",
  "sourceName": "contracts/WavePortal.sol",
  "abi": [
    {
      "inputs": [],
      "stateMutability": "nonpayable",
      "type": "constructor"
    },
    {
      "anonymous": false,
      "inputs": [
        {
          "indexed": true,
          "internalType": "address",
          "name": "to",
          "type": "address"
        },
        {
          "indexed": false,
          "internalType": "uint256",
          "name": "timestamp",
          "type": "uint256"
        },
        {
          "indexed": false,
          "internalType": "uint256",
          "name": "amount",
          "type": "uint256"
        }
      ],
      "name": "NewDonation",
      "type": "event"
    },
    {
      "anonymous": false,
      "inputs": [
        {
          "indexed": true,
          "internalType": "address",
          "name": "from",
          "type": "address"
        },
        {
          "indexed": false,
          "internalType": "uint256",
          "name": "timestamp",
          "type": "uint256"
        },
        {
          "indexed": false,
          "internalType": "string",
          "name": "message",
          "type": "string"
        },
        {
          "indexed": false,
          "internalType": "uint256",
          "name": "amount",
          "type": "uint256"
        }
      ],
      "name": "NewWave",
      "type": "event"
    },
    {
      "inputs": [
        {
          "internalType": "address payable",
          "name": "to",
          "type": "address"
        }
      ],
      "name": "donate",
      "outputs": [],
      "stateMutability": "nonpayable",
      "type": "function"
    },
    {
      "inputs": [],
      "name": "getAllWaves",
      "outputs": [
        {
          "components": [
            {
              "internalType": "address",
              "name": "waver",
              "type": "address"
            },
            {
              "internalType": "string",
              "name": "message",
              "type": "string"
            },
            {
              "internalType": "uint256",
              "name": "timestamp",
              "type": "uint256"
            },
            {
              "internalType": "uint256",
              "name": "amount",
              "type": "uint256"
            }
          ],
          "internalType": "struct WavePortal.Wave[]",
          "name": "",
          "type": "tuple[]"
        }
      ],
      "stateMutability": "view",
      "type": "function"
    },
    {
      "inputs": [],
      "name": "getContractBalance",
      "outputs": [
        {
          "internalType": "uint256",
          "name": "",
          "type": "uint256"
        }
      ],
      "stateMutability": "view",
      "type": "function"
    },
    {
      "inputs": [],
      "name": "getContractBalanceInEther",
      "outputs": [
        {
          "internalType": "uint256",
          "name": "",
          "type": "uint256"
        }
      ],
      "stateMutability": "view",
      "type": "function"
    },
    {
      "inputs": [],
      "name": "getTotalWaves",
      "outputs": [
        {
          "internalType": "uint256",
          "name": "",
          "type": "uint256"
        }
      ],
      "stateMutability": "view",
      "type": "function"
    },
    {
      "inputs": [],
      "name": "owner",
      "outputs": [
        {
          "internalType": "address payable",
          "name": "",
          "type": "address"
        }
      ],
      "stateMutability": "view",
      "type": "function"
    },
    {
      "inputs": [
        {
          "internalType": "string",
          "name": "_message",
          "type": "string"
        }
      ],
      "name": "wave",
      "outputs": [],
      "stateMutability": "payable",
      "type": "function"
    }
  ],
  "bytecode": "0x6080604052605a600255600560035560006004553480156200002057600080fd5b5033600160006101000a81548173ffffffffffffffffffffffffffffffffffffffff021916908373ffffffffffffffffffffffffffffffffffffffff16021790555062000091604051806060016040528060278152602001620014b4602791396200009760201b620007541760201c565b6200022b565b6200013781604051602401620000ae9190620001a4565b6040516020818303038152906040527f41304fac000000000000000000000000000000000000000000000000000000007bffffffffffffffffffffffffffffffffffffffffffffffffffffffff19166020820180517bffffffffffffffffffffffffffffffffffffffffffffffffffffffff83818316178352505050506200013a60201b60201c565b50565b60008151905060006a636f6e736f6c652e6c6f679050602083016000808483855afa5050505050565b60006200017082620001c8565b6200017c8185620001d3565b93506200018e818560208601620001e4565b62000199816200021a565b840191505092915050565b60006020820190508181036000830152620001c0818462000163565b905092915050565b600081519050919050565b600082825260208201905092915050565b60005b8381101562000204578082015181840152602081019050620001e7565b8381111562000214576000848401525b50505050565b6000601f19601f8301169050919050565b611279806200023b6000396000f3fe60806040526004361061006f5760003560e01c80638da5cb5b1161004e5780638da5cb5b146100e45780639a2cdc081461010f578063b0d9c4fd1461013a578063bd43a908146101655761006f565b8062362a9514610074578063449d46c01461009d5780636f9fb98a146100b9575b600080fd5b34801561008057600080fd5b5061009b60048036038101906100969190610b41565b610190565b005b6100b760048036038101906100b29190610b6a565b610390565b005b3480156100c557600080fd5b506100ce61055e565b6040516100db9190610e73565b60405180910390f35b3480156100f057600080fd5b506100f9610566565b6040516101069190610d94565b60405180910390f35b34801561011b57600080fd5b5061012461058c565b6040516101319190610e73565b60405180910390f35b34801561014657600080fd5b5061014f6105d7565b60405161015c9190610e73565b60405180910390f35b34801561017157600080fd5b5061017a6105f9565b6040516101879190610daf565b60405180910390f35b600160009054906101000a900473ffffffffffffffffffffffffffffffffffffffff1673ffffffffffffffffffffffffffffffffffffffff163373ffffffffffffffffffffffffffffffffffffffff16146101ea57600080fd5b60006064600254476101fc9190611043565b6102069190611012565b9050600060646003544761021a9190611043565b6102249190611012565b90508147101561023357600080fd5b600073ffffffffffffffffffffffffffffffffffffffff168373ffffffffffffffffffffffffffffffffffffffff16141561026d57600080fd5b6102ac6040518060400160405280601381526020017f416d6f756e7420746f20646f6e61746520256400000000000000000000000000815250836107ed565b8273ffffffffffffffffffffffffffffffffffffffff166108fc839081150290604051600060405180830381858888f193505050501580156102f2573d6000803e3d6000fd5b506103326040518060400160405280601381526020017f416d6f756e7420666f72206f776e657220256400000000000000000000000000815250826107ed565b61033b81610889565b8273ffffffffffffffffffffffffffffffffffffffff167f0d968ed0843603b466b27a4b0092affa11344caafe6d80e695c16ef623fd42bd4284604051610383929190610ecc565b60405180910390a2505050565b6004543410156103d5576040517f08c379a00000000000000000000000000000000000000000000000000000000081526004016103cc90610e53565b60405180910390fd5b60016000808282546103e79190610fbc565b9250508190555061042d6040518060400160405280600d81526020017f25732068617320776176656421000000000000000000000000000000000000008152503361095c565b600560405180608001604052803373ffffffffffffffffffffffffffffffffffffffff16815260200183815260200142815260200134815250908060018154018082558091505060019003906000526020600020906004020160009091909190915060008201518160000160006101000a81548173ffffffffffffffffffffffffffffffffffffffff021916908373ffffffffffffffffffffffffffffffffffffffff16021790555060208201518160010190805190602001906104f2929190610a21565b50604082015181600201556060820151816003015550503373ffffffffffffffffffffffffffffffffffffffff167f3e113f502ff7c90598a6182f87f699985e9c373d089ba56a11d88a26891c5c8b42833460405161055393929190610e8e565b60405180910390a250565b600047905090565b600160009054906101000a900473ffffffffffffffffffffffffffffffffffffffff1681565b60006105cf6040518060400160405280601781526020017f5765206861766520256420746f74616c207761766573210000000000000000008152506000546107ed565b600054905090565b6000670de0b6b3a76400006105ea61055e565b6105f49190611012565b905090565b60606005805480602002602001604051908101604052809291908181526020016000905b8282101561074b57838290600052602060002090600402016040518060800160405290816000820160009054906101000a900473ffffffffffffffffffffffffffffffffffffffff1673ffffffffffffffffffffffffffffffffffffffff1673ffffffffffffffffffffffffffffffffffffffff1681526020016001820180546106a69061112d565b80601f01602080910402602001604051908101604052809291908181526020018280546106d29061112d565b801561071f5780601f106106f45761010080835404028352916020019161071f565b820191906000526020600020905b81548152906001019060200180831161070257829003601f168201915b50505050508152602001600282015481526020016003820154815250508152602001906001019061061d565b50505050905090565b6107ea816040516024016107689190610dd1565b6040516020818303038152906040527f41304fac000000000000000000000000000000000000000000000000000000007bffffffffffffffffffffffffffffffffffffffffffffffffffffffff19166020820180517bffffffffffffffffffffffffffffffffffffffffffffffffffffffff83818316178352505050506109f8565b50565b6108858282604051602401610803929190610e23565b6040516020818303038152906040527f9710a9d0000000000000000000000000000000000000000000000000000000007bffffffffffffffffffffffffffffffffffffffffffffffffffffffff19166020820180517bffffffffffffffffffffffffffffffffffffffffffffffffffffffff83818316178352505050506109f8565b5050565b600160009054906101000a900473ffffffffffffffffffffffffffffffffffffffff1673ffffffffffffffffffffffffffffffffffffffff163373ffffffffffffffffffffffffffffffffffffffff16146108e357600080fd5b804710156108f057600080fd5b600160009054906101000a900473ffffffffffffffffffffffffffffffffffffffff1673ffffffffffffffffffffffffffffffffffffffff166108fc829081150290604051600060405180830381858888f19350505050158015610958573d6000803e3d6000fd5b5050565b6109f48282604051602401610972929190610df3565b6040516020818303038152906040527f319af333000000000000000000000000000000000000000000000000000000007bffffffffffffffffffffffffffffffffffffffffffffffffffffffff19166020820180517bffffffffffffffffffffffffffffffffffffffffffffffffffffffff83818316178352505050506109f8565b5050565b60008151905060006a636f6e736f6c652e6c6f679050602083016000808483855afa5050505050565b828054610a2d9061112d565b90600052602060002090601f016020900481019282610a4f5760008555610a96565b82601f10610a6857805160ff1916838001178555610a96565b82800160010185558215610a96579182015b82811115610a95578251825591602001919060010190610a7a565b5b509050610aa39190610aa7565b5090565b5b80821115610ac0576000816000905550600101610aa8565b5090565b6000610ad7610ad284610f26565b610ef5565b905082815260208101848484011115610aef57600080fd5b610afa8482856110eb565b509392505050565b600081359050610b118161122c565b92915050565b600082601f830112610b2857600080fd5b8135610b38848260208601610ac4565b91505092915050565b600060208284031215610b5357600080fd5b6000610b6184828501610b02565b91505092915050565b600060208284031215610b7c57600080fd5b600082013567ffffffffffffffff811115610b9657600080fd5b610ba284828501610b17565b91505092915050565b6000610bb78383610d13565b905092915050565b610bc8816110af565b82525050565b610bd78161109d565b82525050565b610be68161109d565b82525050565b6000610bf782610f66565b610c018185610f89565b935083602082028501610c1385610f56565b8060005b85811015610c4f5784840389528151610c308582610bab565b9450610c3b83610f7c565b925060208a01995050600181019050610c17565b50829750879550505050505092915050565b6000610c6c82610f71565b610c768185610f9a565b9350610c868185602086016110fa565b610c8f8161121b565b840191505092915050565b6000610ca582610f71565b610caf8185610fab565b9350610cbf8185602086016110fa565b610cc88161121b565b840191505092915050565b6000610ce0601e83610fab565b91507f4d696e696d756d20657468657220726571756972656420746f207761766500006000830152602082019050919050565b6000608083016000830151610d2b6000860182610bce565b5060208301518482036020860152610d438282610c61565b9150506040830151610d586040860182610d76565b506060830151610d6b6060860182610d76565b508091505092915050565b610d7f816110e1565b82525050565b610d8e816110e1565b82525050565b6000602082019050610da96000830184610bbf565b92915050565b60006020820190508181036000830152610dc98184610bec565b905092915050565b60006020820190508181036000830152610deb8184610c9a565b905092915050565b60006040820190508181036000830152610e0d8185610c9a565b9050610e1c6020830184610bdd565b9392505050565b60006040820190508181036000830152610e3d8185610c9a565b9050610e4c6020830184610d85565b9392505050565b60006020820190508181036000830152610e6c81610cd3565b9050919050565b6000602082019050610e886000830184610d85565b92915050565b6000606082019050610ea36000830186610d85565b8181036020830152610eb58185610c9a565b9050610ec46040830184610d85565b949350505050565b6000604082019050610ee16000830185610d85565b610eee6020830184610d85565b9392505050565b6000604051905081810181811067ffffffffffffffff82111715610f1c57610f1b6111ec565b5b8060405250919050565b600067ffffffffffffffff821115610f4157610f406111ec565b5b601f19601f8301169050602081019050919050565b6000819050602082019050919050565b600081519050919050565b600081519050919050565b6000602082019050919050565b600082825260208201905092915050565b600082825260208201905092915050565b600082825260208201905092915050565b6000610fc7826110e1565b9150610fd2836110e1565b9250827fffffffffffffffffffffffffffffffffffffffffffffffffffffffffffffffff038211156110075761100661115f565b5b828201905092915050565b600061101d826110e1565b9150611028836110e1565b9250826110385761103761118e565b5b828204905092915050565b600061104e826110e1565b9150611059836110e1565b9250817fffffffffffffffffffffffffffffffffffffffffffffffffffffffffffffffff04831182151516156110925761109161115f565b5b828202905092915050565b60006110a8826110c1565b9050919050565b60006110ba826110c1565b9050919050565b600073ffffffffffffffffffffffffffffffffffffffff82169050919050565b6000819050919050565b82818337600083830152505050565b60005b838110156111185780820151818401526020810190506110fd565b83811115611127576000848401525b50505050565b6000600282049050600182168061114557607f821691505b60208210811415611159576111586111bd565b5b50919050565b7f4e487b7100000000000000000000000000000000000000000000000000000000600052601160045260246000fd5b7f4e487b7100000000000000000000000000000000000000000000000000000000600052601260045260246000fd5b7f4e487b7100000000000000000000000000000000000000000000000000000000600052602260045260246000fd5b7f4e487b7100000000000000000000000000000000000000000000000000000000600052604160045260246000fd5b6000601f19601f8301169050919050565b611235816110af565b811461124057600080fd5b5056fea264697066735822122032fbdcbacf9811b5148c6df2966ae94dea3cc016ad1d26f7aa4619de5966fac964736f6c63430008000033596561682c207365636f6e6420736d61727420636f6e747261637420666f72206d792064617070",
  "linkReferences": {},
  "deployedLinkReferences": {}
}